{
  "_format": "hh-sol-artifact-1",
  "contractName": "rent",
  "sourceName": "contracts/rentalAgreement.sol",
  "abi": [
    {
      "inputs": [],
      "stateMutability": "nonpayable",
      "type": "constructor"
    },
    {
      "inputs": [
        {
          "components": [
            {
              "internalType": "string",
              "name": "hirer",
              "type": "string"
            },
            {
              "internalType": "string",
              "name": "Owner",
              "type": "string"
            },
            {
              "internalType": "string",
              "name": "adressOfProperty",
              "type": "string"
            },
            {
              "internalType": "uint256",
              "name": "rentingID",
              "type": "uint256"
            },
            {
              "internalType": "enum rent.RentType",
              "name": "rentType",
              "type": "uint8"
            }
          ],
          "internalType": "struct rent.rentData",
          "name": "_rentData",
          "type": "tuple"
        }
      ],
      "name": "endIt",
      "outputs": [],
      "stateMutability": "nonpayable",
      "type": "function"
    },
    {
      "inputs": [],
      "name": "owner",
      "outputs": [
        {
          "internalType": "address",
          "name": "",
          "type": "address"
        }
      ],
      "stateMutability": "view",
      "type": "function"
    },
    {
      "inputs": [
        {
          "components": [
            {
              "internalType": "string",
              "name": "hirer",
              "type": "string"
            },
            {
              "internalType": "string",
              "name": "Owner",
              "type": "string"
            },
            {
              "internalType": "string",
              "name": "adressOfProperty",
              "type": "string"
            },
            {
              "internalType": "uint256",
              "name": "rentingID",
              "type": "uint256"
            },
            {
              "internalType": "enum rent.RentType",
              "name": "rentType",
              "type": "uint8"
            }
          ],
          "internalType": "struct rent.rentData",
          "name": "_rentData",
          "type": "tuple"
        },
        {
          "internalType": "string",
          "name": "_start",
          "type": "string"
        },
        {
          "internalType": "string",
          "name": "_end",
          "type": "string"
        }
      ],
      "name": "rentIt",
      "outputs": [],
      "stateMutability": "nonpayable",
      "type": "function"
    },
    {
      "inputs": [
        {
          "internalType": "address",
          "name": "",
          "type": "address"
        },
        {
          "internalType": "uint256",
          "name": "",
          "type": "uint256"
        }
      ],
      "name": "rentList",
      "outputs": [
        {
          "internalType": "bool",
          "name": "isRented",
          "type": "bool"
        },
        {
          "components": [
            {
              "internalType": "string",
              "name": "hirer",
              "type": "string"
            },
            {
              "internalType": "string",
              "name": "Owner",
              "type": "string"
            },
            {
              "internalType": "string",
              "name": "adressOfProperty",
              "type": "string"
            },
            {
              "internalType": "uint256",
              "name": "rentingID",
              "type": "uint256"
            },
            {
              "internalType": "enum rent.RentType",
              "name": "rentType",
              "type": "uint8"
            }
          ],
          "internalType": "struct rent.rentData",
          "name": "newrentData",
          "type": "tuple"
        },
        {
          "internalType": "string",
          "name": "start",
          "type": "string"
        },
        {
          "internalType": "string",
          "name": "end",
          "type": "string"
        }
      ],
      "stateMutability": "view",
      "type": "function"
    }
  ],
  "bytecode": "0x608060405234801561001057600080fd5b50336000806101000a81548173ffffffffffffffffffffffffffffffffffffffff021916908373ffffffffffffffffffffffffffffffffffffffff1602179055506113fa806100606000396000f3fe608060405234801561001057600080fd5b506004361061004c5760003560e01c806302fb8c9614610051578063458467491461006d5780638da5cb5b146100a0578063e3365616146100be575b600080fd5b61006b60048036038101906100669190610c0e565b6100da565b005b61008760048036038101906100829190610cb5565b61032c565b6040516100979493929190610ee3565b60405180910390f35b6100a861068b565b6040516100b59190610f4c565b60405180910390f35b6100d860048036038101906100d39190610f67565b6106af565b005b60011515600160003373ffffffffffffffffffffffffffffffffffffffff1673ffffffffffffffffffffffffffffffffffffffff16815260200190815260200160002060008360600151815260200190815260200160002060000160009054906101000a900460ff16151514610185576040517f08c379a000000000000000000000000000000000000000000000000000000000815260040161017c9061105a565b60405180910390fd5b6000600160003373ffffffffffffffffffffffffffffffffffffffff1673ffffffffffffffffffffffffffffffffffffffff16815260200190815260200160002060008360600151815260200190815260200160002060000160006101000a81548160ff0219169083151502179055506040518060400160405280600181526020017f2000000000000000000000000000000000000000000000000000000000000000815250600160003373ffffffffffffffffffffffffffffffffffffffff1673ffffffffffffffffffffffffffffffffffffffff168152602001908152602001600020600083606001518152602001908152602001600020600601908161028e9190611286565b506040518060400160405280600181526020017f2000000000000000000000000000000000000000000000000000000000000000815250600160003373ffffffffffffffffffffffffffffffffffffffff1673ffffffffffffffffffffffffffffffffffffffff16815260200190815260200160002060008360600151815260200190815260200160002060070190816103289190611286565b5050565b6001602052816000526040600020602052806000526040600020600091509150508060000160009054906101000a900460ff1690806001016040518060a001604052908160008201805461037f906110a9565b80601f01602080910402602001604051908101604052809291908181526020018280546103ab906110a9565b80156103f85780601f106103cd576101008083540402835291602001916103f8565b820191906000526020600020905b8154815290600101906020018083116103db57829003601f168201915b50505050508152602001600182018054610411906110a9565b80601f016020809104026020016040519081016040528092919081815260200182805461043d906110a9565b801561048a5780601f1061045f5761010080835404028352916020019161048a565b820191906000526020600020905b81548152906001019060200180831161046d57829003601f168201915b505050505081526020016002820180546104a3906110a9565b80601f01602080910402602001604051908101604052809291908181526020018280546104cf906110a9565b801561051c5780601f106104f15761010080835404028352916020019161051c565b820191906000526020600020905b8154815290600101906020018083116104ff57829003601f168201915b50505050508152602001600382015481526020016004820160009054906101000a900460ff16600181111561055457610553610d9e565b5b600181111561056657610565610d9e565b5b815250509080600601805461057a906110a9565b80601f01602080910402602001604051908101604052809291908181526020018280546105a6906110a9565b80156105f35780601f106105c8576101008083540402835291602001916105f3565b820191906000526020600020905b8154815290600101906020018083116105d657829003601f168201915b505050505090806007018054610608906110a9565b80601f0160208091040260200160405190810160405280929190818152602001828054610634906110a9565b80156106815780601f1061065657610100808354040283529160200191610681565b820191906000526020600020905b81548152906001019060200180831161066457829003601f168201915b5050505050905084565b60008054906101000a900473ffffffffffffffffffffffffffffffffffffffff1681565b60001515600160003373ffffffffffffffffffffffffffffffffffffffff1673ffffffffffffffffffffffffffffffffffffffff16815260200190815260200160002060008560600151815260200190815260200160002060000160009054906101000a900460ff1615151461075a576040517f08c379a0000000000000000000000000000000000000000000000000000000008152600401610751906113a4565b60405180910390fd5b60018060003373ffffffffffffffffffffffffffffffffffffffff1673ffffffffffffffffffffffffffffffffffffffff16815260200190815260200160002060008560600151815260200190815260200160002060000160006101000a81548160ff02191690831515021790555082600160003373ffffffffffffffffffffffffffffffffffffffff1673ffffffffffffffffffffffffffffffffffffffff16815260200190815260200160002060008560600151815260200190815260200160002060010160008201518160000190816108369190611286565b50602082015181600101908161084c9190611286565b5060408201518160020190816108629190611286565b506060820151816003015560808201518160040160006101000a81548160ff0219169083600181111561089857610897610d9e565b5b021790555090505081600160003373ffffffffffffffffffffffffffffffffffffffff1673ffffffffffffffffffffffffffffffffffffffff16815260200190815260200160002060008560600151815260200190815260200160002060060190816109049190611286565b5080600160003373ffffffffffffffffffffffffffffffffffffffff1673ffffffffffffffffffffffffffffffffffffffff16815260200190815260200160002060008560600151815260200190815260200160002060070190816109699190611286565b50505050565b6000604051905090565b600080fd5b600080fd5b600080fd5b6000601f19601f8301169050919050565b7f4e487b7100000000000000000000000000000000000000000000000000000000600052604160045260246000fd5b6109d182610988565b810181811067ffffffffffffffff821117156109f0576109ef610999565b5b80604052505050565b6000610a0361096f565b9050610a0f82826109c8565b919050565b600080fd5b600080fd5b600080fd5b600067ffffffffffffffff821115610a3e57610a3d610999565b5b610a4782610988565b9050602081019050919050565b82818337600083830152505050565b6000610a76610a7184610a23565b6109f9565b905082815260208101848484011115610a9257610a91610a1e565b5b610a9d848285610a54565b509392505050565b600082601f830112610aba57610ab9610a19565b5b8135610aca848260208601610a63565b91505092915050565b6000819050919050565b610ae681610ad3565b8114610af157600080fd5b50565b600081359050610b0381610add565b92915050565b60028110610b1657600080fd5b50565b600081359050610b2881610b09565b92915050565b600060a08284031215610b4457610b43610983565b5b610b4e60a06109f9565b9050600082013567ffffffffffffffff811115610b6e57610b6d610a14565b5b610b7a84828501610aa5565b600083015250602082013567ffffffffffffffff811115610b9e57610b9d610a14565b5b610baa84828501610aa5565b602083015250604082013567ffffffffffffffff811115610bce57610bcd610a14565b5b610bda84828501610aa5565b6040830152506060610bee84828501610af4565b6060830152506080610c0284828501610b19565b60808301525092915050565b600060208284031215610c2457610c23610979565b5b600082013567ffffffffffffffff811115610c4257610c4161097e565b5b610c4e84828501610b2e565b91505092915050565b600073ffffffffffffffffffffffffffffffffffffffff82169050919050565b6000610c8282610c57565b9050919050565b610c9281610c77565b8114610c9d57600080fd5b50565b600081359050610caf81610c89565b92915050565b60008060408385031215610ccc57610ccb610979565b5b6000610cda85828601610ca0565b9250506020610ceb85828601610af4565b9150509250929050565b60008115159050919050565b610d0a81610cf5565b82525050565b600081519050919050565b600082825260208201905092915050565b60005b83811015610d4a578082015181840152602081019050610d2f565b60008484015250505050565b6000610d6182610d10565b610d6b8185610d1b565b9350610d7b818560208601610d2c565b610d8481610988565b840191505092915050565b610d9881610ad3565b82525050565b7f4e487b7100000000000000000000000000000000000000000000000000000000600052602160045260246000fd5b60028110610dde57610ddd610d9e565b5b50565b6000819050610def82610dcd565b919050565b6000610dff82610de1565b9050919050565b610e0f81610df4565b82525050565b600060a0830160008301518482036000860152610e328282610d56565b91505060208301518482036020860152610e4c8282610d56565b91505060408301518482036040860152610e668282610d56565b9150506060830151610e7b6060860182610d8f565b506080830151610e8e6080860182610e06565b508091505092915050565b600082825260208201905092915050565b6000610eb582610d10565b610ebf8185610e99565b9350610ecf818560208601610d2c565b610ed881610988565b840191505092915050565b6000608082019050610ef86000830187610d01565b8181036020830152610f0a8186610e15565b90508181036040830152610f1e8185610eaa565b90508181036060830152610f328184610eaa565b905095945050505050565b610f4681610c77565b82525050565b6000602082019050610f616000830184610f3d565b92915050565b600080600060608486031215610f8057610f7f610979565b5b600084013567ffffffffffffffff811115610f9e57610f9d61097e565b5b610faa86828701610b2e565b935050602084013567ffffffffffffffff811115610fcb57610fca61097e565b5b610fd786828701610aa5565b925050604084013567ffffffffffffffff811115610ff857610ff761097e565b5b61100486828701610aa5565b9150509250925092565b7f49742063616e6e6f742062652072656e74656400000000000000000000000000600082015250565b6000611044601383610e99565b915061104f8261100e565b602082019050919050565b6000602082019050818103600083015261107381611037565b9050919050565b7f4e487b7100000000000000000000000000000000000000000000000000000000600052602260045260246000fd5b600060028204905060018216806110c157607f821691505b6020821081036110d4576110d361107a565b5b50919050565b60008190508160005260206000209050919050565b60006020601f8301049050919050565b600082821b905092915050565b60006008830261113c7fffffffffffffffffffffffffffffffffffffffffffffffffffffffffffffffff826110ff565b61114686836110ff565b95508019841693508086168417925050509392505050565b6000819050919050565b600061118361117e61117984610ad3565b61115e565b610ad3565b9050919050565b6000819050919050565b61119d83611168565b6111b16111a98261118a565b84845461110c565b825550505050565b600090565b6111c66111b9565b6111d1818484611194565b505050565b5b818110156111f5576111ea6000826111be565b6001810190506111d7565b5050565b601f82111561123a5761120b816110da565b611214846110ef565b81016020851015611223578190505b61123761122f856110ef565b8301826111d6565b50505b505050565b600082821c905092915050565b600061125d6000198460080261123f565b1980831691505092915050565b6000611276838361124c565b9150826002028217905092915050565b61128f82610d10565b67ffffffffffffffff8111156112a8576112a7610999565b5b6112b282546110a9565b6112bd8282856111f9565b600060209050601f8311600181146112f057600084156112de578287015190505b6112e8858261126a565b865550611350565b601f1984166112fe866110da565b60005b8281101561132657848901518255600182019150602085019450602081019050611301565b86831015611343578489015161133f601f89168261124c565b8355505b6001600288020188555050505b505050505050565b7f497420697320616c72656164792072656e746564210000000000000000000000600082015250565b600061138e601583610e99565b915061139982611358565b602082019050919050565b600060208201905081810360008301526113bd81611381565b905091905056fea2646970667358221220d809a7bbd31246d577da5534a9ffa1c75385762bd4835fd73894862283b1034864736f6c63430008130033",
  "linkReferences": {},
  "deployedLinkReferences": {}
}